:100000000C9434000C9451000C9451000C94510049
:100010000C9451000C9451000C9451000C9451001C
:100020000C9451000C9451000C9451000C9451000C
:100030000C9451000C9451000C9451000C945100FC
:100040000C945D010C9451000C94BA010C94910134
:100050000C9451000C9451000C9451000C945100DC
:100060000C9451000C94510011241FBECFEFD8E026
:10007000DEBFCDBF11E0A0E0B1E0E2E8F9E002C0F0
:1000800005900D92A630B107D9F723E0A6E0B1E0C4
:1000900001C01D92A632B207E1F70E942B010C9419
:1000A000BF040C940000CF93DF93BC01C1ECD0E0FF
:1000B00098819F7D988340E051E080E292E00E9429
:1000C000E701888180628883DF91CF910895CF9383
:1000D000DF938091840090918500209110013091F0
:1000E0001101AC01421B530B9A0124383E41D8F058
:1000F0009093110180931001E3E1F2E0AAE0B1E0F6
:100100004AE152E081919D91C82FC91B9C2FEA01C1
:100110009993AE019D0121503109E9018883D2E014
:10012000E931FD0779F7DF91CF91089580911902A8
:1001300090911201891333C080E00895E92FF0E017
:10014000ED5EFE4F808121110EC08053863010F489
:10015000482F21E09F5F809119028913EFCF909380
:10016000120181E00895213029F48A3399F730E0B3
:1001700022E0F0CF223071F760ED680F663030F486
:10018000359F800D112430ED380FE4CF8C3211F7FC
:10019000E42FF0E0E05EFC4F308320E0DBCF30E086
:1001A00040E020E05AE0D7CFCF92DF92EF92FF926B
:1001B0000F931F93CF93DF93CDB7DEB7E2970FB6C0
:1001C000F894DEBF0FBECDBF8AE1E82E82E0F82EA4
:1001D00010E00EE190E0C92E91E0D92EF701819157
:1001E0007F01809FC00111249F938F93DF92CF9254
:1001F00081E090E08C0F9D1F810F911D9F938F9345
:100200000E94F601180F0F900F900F900F900F9013
:100210000F90F0E2EF16F2E0FF0601F764E071E004
:1002200081E090E08C0F9D1F810F911D0E94E001E5
:10023000CE0101960E945300E2960FB6F894DEBFFD
:100240000FBECDBFDF91CF911F910F91FF90EF9027
:10025000DF90CF9008958FE384B915B89EEF9AB9D7
:100260009DEF9BB917B888B986E0E0E2F3E0DF01C3
:10027000982F1D929A95E9F714BC91E095BD909343
:100280006E001092C50090E19093C40092E09093AC
:10029000C00098E99093C1008093C20085E08093EC
:1002A00081001092190278940E9467000E949600C3
:1002B0008823D1F30E94D400F7CF2F932FB72F9329
:1002C0008F939F93EF93FF93909109019F5F90937A
:1002D0000901E0E2F3E080E086952191921708F4AD
:1002E000806223E0E632F207B9F785B996B18091D2
:1002F0000801892790930801E3E1F2E080FF03C041
:1003000090819F5F90838695319692E0E931F9075D
:10031000A9F7FF91EF919F918F912F912FBF2F916F
:1003200018951F921FB61F9211248F93EF93FF937E
:10033000E091070181E08E0F80930701F0E0E05E1D
:10034000FD4F80818093C600E0910701F0E0E05E00
:10035000FD4F8081811107C08091C1008F7D809306
:10036000C10010920701FF91EF918F911F901FBE66
:100370001F9018958F938FB78F939F93EF93FF9351
:100380008091C60090EE980F903688F4E0910601B7
:1003900091E09E0F90930601F0E0ED5EFE4F8083AA
:1003A000FF91EF919F918F918FBF8F9118958A3018
:1003B00011F08D30A9F78091060180931902F0CFDA
:1003C000FB01DC0101900D920020E1F70895FB0193
:1003D000DC014150504048F001900D920020C9F7D7
:1003E00001C01D9241505040E0F70895AEE0B0E0EA
:1003F000ECEFF1E00C9496040D891E8986E08C8365
:100400001A8309838FEF9FE79E838D83AE01475E3A
:100410005F4F6F89788DCE0101960E9419022F815E
:100420003885020F131FF80110822E96E4E00C9419
:10043000B204ABE0B0E0EFE1F2E00C9488047C01A0
:100440003B018A01FC0117821682838181FFB9C1B9
:100450009AE0292ECE0101965C01F7019381F30108
:1004600093FD859193FF81913F01882309F446C153
:10047000853239F493FD859193FF81913F01853257
:1004800029F4B70190E00E94FA03E7CF912C412CA8
:10049000512CFFE1F51538F08B3209F188F48032E8
:1004A00001F1833221F157FC3AC020ED280F2A30A8
:1004B00040F556FE1FC0929C200D1124922E06C0BE
:1004C0008D3291F0803379F7689450F8F30193FD01
:1004D000859193FF81913F018111DBCF20C068940A
:1004E00051F8689452F8F2CF689453F8EFCF6894BB
:1004F00054F8ECCF429C200D1124422E689455F8FC
:10050000E5CF8E3229F456FCF9C0689456F8DECF58
:100510008C3619F4689457F8D9CF8836B9F2982FE9
:100520009F7D95549330C0F08336A1F18337C1F19C
:10053000833509F05BC0F801C190D1908F01692D1E
:1005400070E056FC02C06FEF7FEFC6010E94E4032B
:100550004C01689457F80AC00C5F1F4F2FE32983A2
:1005600088248394912C6501E89457F853FC04C0C7
:100570004814190409F018F5342C8114910431F54C
:10058000332009F46ACFB70180E290E00E94FA03B9
:100590003A94F6CFF801808189830E5F1F4FE0CF38
:1005A000F801C190D1908F01692D70E056FC02C016
:1005B0006FEF7FEFC6010E94EF034C01D5CFB7016B
:1005C00080E290E00E94FA034A94D2CFF60157FCF1
:1005D000859157FE81916F01B70190E00E94FA0367
:1005E00031103A94F1E08F1A9108C7CF843619F090
:1005F000893609F074C0F80157FE6AC061917191A3
:10060000819191918F01252D2F76D22E97FF09C0D0
:1006100090958095709561957F4F8F4F9F4F68940F
:10062000D7F82AE030E0A5010E942A04C82ECA1893
:100630008C2C5D2CD6FE0CC0E89450F8C91440F404
:10064000D4FE05C0D2FC03C0FD2DFE7E5F2E892C9A
:1006500054FE8FC0FE01EC0DF11D8081803309F046
:1006600081C0252D297E522E852D8870382E53FC71
:100670008FC050FE89C09C2C841418F44C0C942C10
:10068000981854FE8BC0B70180E390E00E94FA03F3
:1006900052FE09C088E790E051FE02C088E590E074
:1006A000B7010E94FA03C91408F484C0CA94D12C7B
:1006B0009FEFC91AD90ACA0CDB1CF60182916F019F
:1006C000B70190E00E94FA03AC14BD04B1F758CF13
:1006D00061917191072E000C880B990B93CFD52C4B
:1006E000E894D4F82AE030E0853739F1952D997FE8
:1006F000D92E8F3601F148F48835A9F0F7018681AB
:1007000097812B96E2E10C94A404803749F0883756
:10071000A9F7D4FE02C06894D2F820E130E00DC001
:100720006894D4F8F6CF54FE03C0E92FE660DE2EBD
:1007300020E132E002C028E030E0F801D7FE0DC031
:1007400061917191819191918F01A5010E942A047B
:10075000C82ECA18E894D7F86BCF6191719190E0D8
:1007600080E0F2CF52FC02C083947ECF83948394C6
:100770007BCF852D867809F477CFF6CFB70180E25D
:1007800090E00E94FA0383948414C0F3312C79CF53
:10079000342C3818841408F474CFF8CF852D86785B
:1007A00009F481CF8BE251FE80E257FC8DE2B70164
:1007B00090E077CFB70180E390E00E94FA039A942B
:1007C00072CF8FEF9FEF9DCFFC010590615070407D
:1007D0000110D8F7809590958E0F9F1F0895FC010A
:1007E0006150704001900110D8F7809590958E0F60
:1007F0009F1F08950F931F93CF93DF93182F092FF7
:10080000EB018B8181FD09C01FEF0FEF812F902F2E
:10081000DF91CF911F910F91089582FF14C02E8117
:100820003F818C819D81281739073CF4E881F9814B
:10083000CF0101969983888310838E819F810196D1
:100840009F838E83E3CFE885F985812F0995892BD6
:10085000A1F3DACFFA01AA27283051F1203181F132
:10086000E8946F936E7F6E5F7F4F8F4F9F4FAF4FB8
:10087000B1E03ED0B4E03CD0670F781F891F9A1FCB
:10088000A11D680F791F8A1F911DA11D6A0F711D7F
:10089000811D911DA11D20D009F468943F912AE08B
:1008A000269F11243019305D3193DEF6CF01089573
:1008B000462F4770405D4193B3E00FD0C9F7F6CFA4
:1008C000462F4F70405D4A3318F0495D31FD40526C
:1008D000419302D0A9F7EACFB4E0A6959795879502
:1008E00077956795BA95C9F70097610571050895E1
:1008F0009B01AC010A2E069457954795379527958D
:10090000BA95C9F7620F731F841F951FA01D089524
:100910002F923F924F925F926F927F928F929F920F
:10092000AF92BF92CF92DF92EF92FF920F931F93FD
:10093000CF93DF93CDB7DEB7CA1BDB0B0FB6F894AE
:10094000DEBF0FBECDBF09942A88398848885F84EE
:100950006E847D848C849B84AA84B984C884DF805F
:10096000EE80FD800C811B81AA81B981CE0FD11D43
:100970000FB6F894DEBF0FBECDBFED010895F89419
:02098000FFCFA7
:0609820025642C000A00B0
:00000001FF
